:10080000750800750901E4F50AF50EF50DF50CF50E
:100810000BF512F511F510F50FF513751401FCD257
:10082000907D01E4F5A012087375A00A1208737593
:10083000A01412087375A01E12087375A028120860
:100840007375A03212087375A03C12087375A04628
:0508500012087380CEC8
:040873007FF47E018F
:10087700E4FDFCC3ED9FEE6480F8EC6480985007BC
:070887000DBD00010C80EC27
:01088E002247
:10085500438901EF4E6016758A65758CFCD28C3024
:0E0865008DFDC28DC28CEF1F70E91E80E62251
:0300000002088F64
:0C088F00787FE4F6D8FD758114020800A3
:00000001FF
