:100DE20054656E73616F206C696461205B565D3A75
:030DF200002E00D0
:100CB500E4F508F50CF50BF50AF509D290120D9D32
:100CC500120E157BFF7A0D79E2120D51120E1B12D1
:100CD5000D158F08850880AF087E007C007D051204
:100CE5000B8AAC06AD07EC120AA3E4FBFA797F7810
:100CF50043120A018F0C8E0B8D0A8C097FFA7E0038
:100D0500120D7FAF0CAE0BAD0AAC09120BC380BF41
:100D9D0075A038120E0175A006120E0175A00E1267
:080DAD000E0175A001020E0108
:060E1500E4F5A0020E014D
:060E1B0075A0C0020E01EB
:060D51008B148A158916BF
:100D5700120DCD8F18E4F517E517C395185018AB8A
:100D670014AA15A916851782758300120B5DF5A0C5
:070D7700120E0B051780E1CD
:010D7E002252
:080BC3008F108E0F8D0E8C0DBA
:100BCB00E4F511F512F513FBFA79C878421208F81F
:100BDB008F108E0F8D0E8C0DE4FBFA79C8784212B4
:100BEB000A01120ADC8F11AF10AE0FAD0EAC0DC0A7
:100BFB0004C005C006C007AF117E007C007D6412E7
:100C0B000B8AAC06AD07EC120AA3A804A905AA0629
:100C1B00AB07D007D006D005D0041208038F108E77
:100C2B000F8D0E8C0DE4FBFA79207841120A01121C
:100C3B000ADC8F12AF10AE0FAD0EAC0DC004C005A9
:100C4B00C006C007AF127E007C007D0A120B8AAC77
:100C5B0006AD07EC120AA3A804A905AA06AB07D098
:100C6B0007D006D005D0041208038F108E0F8D0EFF
:100C7B008C0D120ADC8F1374302511F5117430258D
:100C8B0012F51274302513F5138511A0120E0B7B80
:100C9B00FF7A0D79F3120D518512A0120E0B8513ED
:0A0CAB00A0120E0B75A0C0020E018E
:060DB500D2B67F057E00AE
:100DBB00E4FDEDC39FEE6480F874809850030D80C2
:010DCB00F136
:010DCC002204
:100D7F00438901EF4E6016758A65758CFCD28C30F5
:0E0D8F008DFDC28DC28CEF1F70E91E80E62222
:0A0E0100C2B7120DB5C2B6020D7F94
:0A0E0B00D2B7120DB5C2B6020D7F7A
:100D1500E4FCC2907F0AFE120DBBD291120DBBE41A
:100D2500FBFAC2917F0A7E00120DBBEC25E0FC3078
:100D350092010CD2917F0A7E00120DBB0BBB000104
:0B0D45000AEB64094A70DBD290AF0497
:010D50002280
:10080000020B48E86480F8E933E83360110460F0D3
:10081000ED33EC337009E8FCE9FDEAFEEBFF22045E
:1008200060DED3EB9FEA9EE99DE8C2E78CF0C2F759
:1008300095F0400CE8CCF8E9CDF9EACEFAEBCFFB25
:10084000120B1385D0F05804700320D5B3E8047060
:10085000075002B2D5020B5292D5EC0460F7E4CCFB
:10086000C0E0C398F8603B94186008400DD0E0FBEE
:10087000020B2AE4FBFAC9FC8028E830E406E4C94C
:10088000FBE4CAFCE830E305E4C9CACBFCE8540742
:100890006010F8C3E913F9EA13FAEB13FBEC13FC4D
:1008A000D8F130F52FC3E49CFCEF9BFFEE9AFEEDF0
:1008B00099FDD0E0FBEF4E4D4C701222DB03020B92
:1008C0004FEC2CFCEF33FFEE33FEED33FDED30E764
:1008D000EB020B2AEF2BFFEE3AFEED39FDD0E0FBE9
:1008E00050130BBB0003020B52ED13FDEE13FEEF92
:0808F00013FFEC13FC020B2ABC
:1008F800EC4D6011E8497017ED33EC3304600DE4FA
:10090800FCFFFEFD22E933E8330470F8020B4812BD
:100918000B1358046009E4CC2481500628500902BE
:100928000B52284003020B4FC0E0EB4A7044B980D9
:1009380006D0E0FB020B3EEF4E701CBD8008EBFFBB
:10094800EAFEE9FD80EBE98DF0A4FEE5F00209E19D
:10095800E9CDF9EAFEEBFFEF89F0A4FCE5F0CE89DA
:10096800F0A42EFFE435F0CD89F0A42DFEE435F097
:100978008067EF4E7005BD80D780C3EF8BF0A4ACC5
:10098800F0EE8BF0A42CFCE435F0F8EF8AF0A42C00
:10099800E5F038FCE433CB8DF0A42CFCE5F03BF813
:1009A800EE8AF0A42CFCE5F038F8E433CF89F0A403
:1009B8002CFCE5F038CF3400CE89F0A42FFFE5F009
:1009C8003EFEE433C98DF0A42EFEE5F039CD8AF061
:1009D800A42FFFE5F03EFEE43DFD33D0E0FB5007D9
:1009E8000BBB000F020B52EC2CFCEF33FFEE33FE77
:0609F800ED33FD020B2AA5
:1009FE00020B52EC5D046005E859047003020B48CB
:100A0E00120B13580460F6EC4860F2EC7004FDFE15
:100A1E00FF22C860DB2481C85009C39860025006CB
:100A2E00020B4F9850CAF582E9294B4A7005AB82EA
:100A3E00020B3E75F0007C1A7880C3EF9BEE9AEDA8
:100A4E0099400DC3EF9BFFEE9AFEED99FDE842F043
:100A5E00DC23ACF0D0E0FFD0E0FED0E0FDAB822096
:100A6E00E7101BEB60BAEC2CFCEF33FFEE33FEED20
:100A7E0033FD020B2AE803F830E705C0F075F000ED
:100A8E00EF2FFFEE33FEED33FD40B830E7C280AA04
:100A9E0075F020800E75F010800575F0087D007ED3
:100AAE00007F003392D530D503120B9CEC334010EF
:100ABE00EF33FFEE33FEED33FDEC33FCD5F0ED22DC
:0E0ACE00E5F0247EA2D513CC92E7CDCEFF2218
:100ADC00EDD2E7CD33EC3392D524814006E4FFFE12
:100AEC00FDFC22FCE4CFCECDCC24E0501174FF8071
:100AFC00EDC3CC13CCCD13CDCE13CECF13CF04700E
:070B0C00F030D5DE020B9C66
:100B1300E9D2E7C933E833F892D5EDD2E7CD33EC28
:070B230033FC5002B2D522A1
:100B2A00EC30E7100FBF000C0EBE00080DBD00042C
:100B3A000BEB6014A2D5EB13FCED92E7FD2274FFD8
:100B4A00FCFDFEFF22E480F8A2D574FF13FC7D8031
:030B5A00E480EF45
:03000000020DF5F9
:0C0DF500787FE4F6D8FD758118020CB57B
:100B5D00BB010CE58229F582E5833AF583E022504D
:100B6D0006E92582F8E622BBFE06E92582F8E22297
:0D0B7D00E58229F582E5833AF583E49322B1
:100B8A00EF8DF0A4A8F0CF8CF0A428CE8DF0A42E7F
:020B9A00FE2239
:0E0B9C00C3E49FFFE49EFEE49DFDE49CFC226A
:100DCD00E4FFFE120BAA600C0FEF70010E09E97023
:050DDD00F20A80EF2284
:100BAA00BB010689828A83E0225002E722BBFE0249
:090BBA00E32289828A83E493227C
:00000001FF
