:10080000750800750901E4F50AF50EF50DF50CF50E
:100810000BF512F511F510F50FF513751401D290C3
:100820008514A0D3E5149464E51364809480401784
:10083000AE08AF097CFF7DFF1208BD8E088F0975D9
:1008400013007514648022C3E5149401E5136480D9
:1008500094805015AE08AF097CFF7DFF1208BD8E55
:10086000088F09751300751401AE08AF097C007D6F
:100870000A1208BDEF2514F514EE3513F5137F6445
:070880007E001208A580991B
:1008A500E4FDFCC3ED9FEE6480F8EC64809850078E
:0708B5000DBD00010C80ECF9
:0108BC002219
:10088700438901EF4E6016758A65758CFCD28C30F2
:0E0897008DFDC28DC28CEF1F70E91E80E6221F
:030000000208CF24
:0C08CF00787FE4F6D8FD75811402080063
:1008BD00EF8DF0A4A8F0CF8CF0A428CE8DF0A42E4F
:0208CD00FE2209
:00000001FF
