:10080000750800750901E4F50AF50EF50DF50CF50E
:100810000BF512F511F510F50FF513751401FCD257
:10082000907D01E4F5A012086175A00A12086175B7
:10083000A03212086175A03C12086175A04612082A
:030840006180E0F4
:040861007FF47E01A1
:10086500E4FDFCC3ED9FEE6480F8EC6480985007CE
:070875000DBD00010C80EC39
:01087C002259
:10084300438901EF4E6016758A65758CFCD28C3036
:0E0853008DFDC28DC28CEF1F70E91E80E62263
:0300000002087D76
:0C087D00787FE4F6D8FD758114020800B5
:00000001FF
