:100C9B0043686F6F7365206D6F64652E2E2E003168
:100CAB00205069616E6F203220436F6D706F73003F
:100CBB002D2D205049414E4F204D4F4445202D2D79
:100CCB000020506C617920616E79206B6579200072
:100CDB00434F4D504F534552204D4F444500456EA9
:100CEB007465722077697468206E6F746573206108
:100CFB006E64206974732074696D6500C4CAD0D3A7
:100D0B00D8DCE0E2E5E8E9ECEEF0F1F2F4F4F6F72A
:100D1B00F8F8F9FAFAFBFBFCFC45CC9841247D5E14
:100D2B0024664DA1123F2E12B326D0091F178959E5
:100D3B00136804900C4408090A0B0C0E0F101215C3
:100D4B0016191C1F2125292C31373E414952576258
:030D5B006E7B8329
:0D0FD100C10002220000024D0000012100BD
:100BC100E4F580121003121019120F87121020E59C
:100BD10021B403137D017C00AF4F120A0A200003E8
:100BE100752102C20080E8E521B40204C20080DF61
:100BF100E5217017120FDF120E68120FEB7BFF7ADF
:100C01000C79AA120E6E75210180C4E521B401048C
:100C1100D28080BBE521B46423D282C281C280121A
:100C21000FDF7BFF7A0C79BB120E6E120FEB7BFF8D
:100C31007A0C79CC120E6E7521028093E5216465E0
:100C4100702CD282C281D280120FDF7BFF7A0C79A5
:100C5100DB120E6E120FEB7BFF7A0C79E9120E6E2E
:100C6100120FDF7BFF7A0C79DB120E6E8011E5210A
:100C710064327003020BD0E521B43309120EB27550
:100C81002132020BD0E521F46003020BD0C2AF1276
:0A0C91000F69E4F521D2AF020BD089
:03002300020DEAE1
:100DEA00C0E0C0D075D000C000D28DC28C85994FAA
:100DFA00E54FB41B057521FF805BE521B40205753B
:100E0A0021038051E521B40304D2008048E521B4CE
:100E1A000117C287E54FB431057521648037E54F64
:100E2A0064327031752165802CE521B43227E54E94
:100E3A006428454D6005E54FB40D0B754D00754EA0
:100E4A0000752133800F7424254EF8A64F054EE510
:0E0E5A004E7002054DC298D000D0D0D0E032CC
:03001B00021024AC
:011024003299
:100FC0008F13120FA56380FFAF13120FA56380FF6D
:010FD00022FE
:040A06007D0A7C00E9
:040A0A008C0D8D0EB4
:100A0E0074FFF50FF510EF24D47003020B7324FE60
:100A1E007003020B7B24677003020B332466B41A37
:100A2E00004003020B81900A4275F003A4C5832592
:100A3E00F0C58373020AE9020B5B020B4B020AFB41
:100A4E00020AA1020B03020B0B020B13020ACE02C7
:100A5E000B1B020B23020B2B020B6B020B63020A06
:100A6E00D7020AE0020A90020AAA020AF2020AB3A6
:100A7E00020AC5020B53020A98020B43020ABC0279
:100A8E000B3BE4F50FF510020B81750F007510018D
:100A9E00020B81750F00751002020B81750F007528
:100AAE001003020B81750F00751004020B81750F78
:100ABE0000751005020B81750F00751006020B8173
:100ACE00750F00751007020B81750F007510080267
:100ADE000B81750F00751009020B81750F007510D3
:100AEE000A020B81750F0075100B020B81750F003A
:100AFE0075100C807E750F0075100D8076750F00C9
:100B0E0075100E806E750F0075100F8066750F00D4
:100B1E00751010805E750F007510118056750F00E0
:100B2E00751012804E750F007510138046750F00EC
:100B3E00751014803E750F007510158036750F00F8
:100B4E00751016802E750F007510178026750F0004
:100B5E00751018801E750F007510198016750F0010
:100B6E0075101A800E750F0075101B8006750F001C
:0C0B7E0075101CC3E50F648094804036A5
:100B8A0074412510F582740D350FF583E493FF7EC9
:100B9A0000AC0DAD0E120F148E118F12D3E5129404
:100BAA0000E5119400400FAF10120FC0E5121512A4
:060BBA007002151180E637
:010BC0002212
:100EB200750800750900750A24AB08AA09A90A1267
:100EC2000EFB6034050AE50A7002050914F9120ED8
:100ED200FBF50B050AE50AAA097002050914F912C5
:100EE2000EFBF50CFF3395E0FEEF24D0FDEE34FF50
:080EF200FCAF0B120A0A80C1DB
:010EFA0022D5
:1008000075A071120FF77F71120A06120F2675A0DC
:1008100077120FF77F77120A06120F2675A065125E
:100820000FF77D0A7C007F65120A0A120F2675A059
:1008300072120FF77D0A7C007F72120A0A120F26CD
:1008400075A074120FF77D0A7C007F74120A0A12D9
:100850000F2675A079120FF77D0A7C007F79120AA6
:100860000A120F2675A075120FF77D0A7C007F759E
:10087000120A0A120F2675A069120FF77D0A7C0072
:100880007F69120A0A120F2675A06F120FF77D0AF0
:100890007C007F6F120A0A120F2675A070120FF7E4
:1008A0007D0A7C007F70120A0A120F2675A0611261
:1008B0000FF77D0A7C007F61120A0A120F2675A0CD
:1008C00073120FF77D0A7C007F73120A0A120F263B
:1008D00075A064120FF77D0A7C007F64120A0A1269
:1008E0000F2675A066120FF77D0A7C007F66120A3C
:1008F0000A120F2675A067120FF77D0A7C007F672A
:10090000120A0A120F2675A068120FF77D0A7C00E2
:100910007F68120A0A120F2675A06A120FF77D0A65
:100920007C007F6A120A0A120F2675A06B120FF75D
:100930007D0A7C007F6B120A0A120F2675A06C12CA
:100940000FF77D0A7C007F6C120A0A120F2675A031
:10095000C7120FF77D0A7C007FC7120A0A120F2602
:1009600075A07A120FF77D0A7C007F7A120A0A12AC
:100970000F2675A078120FF77D0A7C007F78120A87
:100980000A120F2675A063120FF77D0A7C007F63A1
:10099000120A0A120F2675A076120FF77D0A7C0044
:1009A0007F76120A0A120F2675A062120FF77D0ACF
:1009B0007C007F62120A0A120F2675A06E120FF7D2
:1009C0007D0A7C007F6E120A0A120F2675A06D1236
:1009D0000FF77D0A7C007F6D120A0A120F2675A0A0
:1009E0002E120FF77D0A7C007F2E120A0A120F26A4
:1009F00075A03B120FF77D0A7C007F3B120A0A7F2D
:060A0000E87E03020F2A4C
:100FA500438901EF900D0793F58CEF900D2493F590
:0B0FB5008AD28C308DFDC28DC28C22D0
:040F26007FE87E03DF
:100F2A00438901EF4E6016758A65758CFCD28C3048
:0E0F3A008DFDC28DC28CEF1F70E91E80E62275
:090F4800121025D2B77F057E00CE
:100F5100E4FDFCC3ED9FEE6480F8EC6480985007DB
:070F61000DBD00010C80EC46
:010F68002266
:0110250022A8
:0C0FDF0075A00112100F75A08002100F09
:0C0FEB0075A0C012100F75A00F02100FAF
:0A100F00C2B6120F48C2B7020F2A42
:0C0FF700D2B6120F48C2B77F32020F2A98
:060E68007BFF7A0C799B70
:100E6E008B088A09890AE4F522F523AB08AA09A999
:100E7E000A120EFB6028050AE50A7002050914F92C
:100E8E00120EFBF5A0120FF70523E52370020522C3
:100E9E006410452270D575A00712100F80CD75A075
:040EAE000602100F19
:100F6900E4F522F523120F87120FDF120E68120F14
:0E0F7900EB7BFF7A0C79AA120E6EE4F52122B2
:0710190075878075985022D5
:100F870075A03812100F75A00612100F75A00E125B
:0E0F9700100F75A00112100F75A00202100FAE
:0410200075A89022FD
:0C100300758920758DFD758BFDD28E2245
:03000000020D5E90
:0C0D5E00787FE4F6D8FD75814F020DA5EA
:100EFB00BB010689828A83E0225002E722BBFE02F5
:090F0B00E32289828A83E4932227
:100F1400EF8DF0A4A8F0CF8CF0A428CE8DF0A42EF1
:020F2400FE22AB
:100D6A00020BC1E493A3F8E493A34003F68001F2D3
:100D7A0008DFF48029E493A3F85407240CC8C3338A
:100D8A00C4540F4420C8834004F456800146F6DF59
:100D9A00E4800B0102040810204080900FD1E47E09
:100DAA00019360BCA3FF543F30E509541FFEE4934E
:100DBA00A360010ECF54C025E060A840B8E493A315
:100DCA00FAE493A3F8E493A3C8C582C8CAC583CA40
:100DDA00F0A3C8C582C8CAC583CADFE9DEE780BEF8
:010FDE000012
:00000001FF
