:100A950043686F6F7365206D6F64652E2E2E003170
:100AA500205069616E6F203220436F6D706F730047
:100AB5002D2D205049414E4F204D4F4445202D2D81
:100AC5000020506C617920616E79206B657920007A
:100AD500434F4D504F534552204D4F444500456EB1
:100AE5007465722077697468206E6F746573206110
:100AF5006E64206974732074696D6500C4CAD0D3AF
:100B0500D8DCE0E2E5E8E9ECEEF0F1F2F4F4F6F732
:100B1500F8F8F9FAFAFBFBFCFC45CC9841247D5E1C
:100B250024664DA1123F2E12B326D0091F178959ED
:100B3500136804900C4423282D2F353C4347505906
:100B45005F6A77868E9FB3BDD5EF0C1C3F667BA988
:030B5500DD183870
:0C0D760002080000020A00000234000025
:100C7400120D9B120DA7120CB4120D83120BE41269
:100C84000D8F7BFF7A0A79A4120BEA120DAE80FE57
:100D42008F42E4F580AF42120D0E7580FFAF420272
:020D52000D0E84
:040800008C3C8D3D62
:1008040074FFF53EF53FBF7108E4F53EF53F02097C
:1008140057BF7709753E00753F01020957BF650947
:10082400753E00753F02020957BF7209753E007597
:100834003F03020957BF7409753E00753F0402095E
:1008440057BF7909753E00753F05020957BF750901
:10085400753E00753F06020957BF6909753E00756C
:100864003F07020957BF6F09753E00753F0802092B
:1008740057BF7009753E00753F09020957BF6109EA
:10088400753E00753F0A020957BF7309753E00752E
:100894003F0B020957BF6409753E00753F0C0209FE
:1008A40057BF6609753E00753F0D020957BF6709BA
:1008B400753E00753F0E020957BF6809753E007505
:1008C4003F0F020957BF6A09753E00753F100209C0
:1008D40057BF6B08753E00753F118077BF6C087574
:1008E4003E00753F12806CBFC708753E00753F130C
:1008F4008061BF7A08753E00753F148056BF780842
:10090400753E00753F15804BBF6308753E00753F0B
:10091400168040BF7608753E00753F178035BF626C
:1009240008753E00753F18802ABF6E08753E007535
:100934003F19801FBF6D08753E00753F1A8014BFB4
:100944002C08753E00753F1B8009BF2E06753E00BE
:0C095400753F1CC3E53E64809480402D7C
:10096000743B253FF582740B353EF583E493754067
:1009700000F541D3E5419400E5409400400FAF3FBE
:0D098000120D42E54115417002154080E660
:01098D002247
:0C0D830075A001120D5475A080020D54E3
:0C0D8F0075A0C0120D5475A00F020D5489
:100D5400C2B6120DB2120CF0C2B77F057E00020CAF
:010D6400D2BC
:100D6500D2B6120DB2120CF0C2B77F967E00020CFD
:010D7500D2AB
:060BE4007BFF7A0A7995FF
:100BEA008B438A448945E4F50AF50BAB43AA44A929
:100BFA0045120D2960280545E5457002054414F99A
:100C0A00120D29F5A0120D65050BE50B7002050AF8
:100C1A006410450A70D575A007120D5480CD75A0D1
:040C2A0006020D545D
:0300230002098E41
:10098E00C0E0C0F0C083C082C0D075D000C000C02F
:10099E0001C002C003C004C005C006C00785993659
:1009AE00E509640145087014E536B41B03120C9476
:1009BE007DE87C03AF36120800020A78E50964026E
:1009CE004508703AE536B41B06120C94020A78E517
:1009DE0035642845346005E536B40D11120C2E75BC
:1009EE003400753500750800750903807D740C257B
:1009FE0035F8A6360535E53570700534806CE5366C
:100A0E00B43120120D837BFF7A0A79B5120BEA12EC
:100A1E000D8F7BFF7A0A79C6120BEA7508007509ED
:100A2E00018047E53664327023120D837BFF7A0A0C
:100A3E0079D5120BEA120D8F7BFF7A0A79E3120B2E
:100A4E00EA120D837BFF7A0A79D58015120D837B0E
:100A5E00FF7A0A79D5120BEA120D8F7BFF7A0A798B
:100A6E00E3120BEA750800750902C298D007D0068A
:100A7E00D005D004D003D002D001D000D0D0D08287
:070A8E00D083D0F0D0E0326C
:100C2E0075370075380075390CAB37AA38A93912EB
:100C3E000D29602C0539E5397002053814F9120DAD
:100C4E0029F53A0539E539AA387002053814F91232
:100C5E000D29F53BFD3395E0FCAF3A12080080C933
:050C6E00E4F508F509A2
:010C7300225E
:0C0D9B00758920758DFD758BFDD28E22B0
:100C9400E4F50AF50B120CB4120D83120BE4120DD9
:100CA4008F7BFF7A0A79A4120BEAE4F508F509228E
:070DA700758780759850224A
:100CB40075A038120D5475A006120D5475A00E12AD
:0E0CC4000D5475A001120D5475A002020D54BE
:040DAE0075A8902272
:100D0E00758901EF900B0193F58CEF900B1E93F507
:0B0D1E008AD28C308DFDC28DC28C2269
:100CD200438901EF4E6016758A65758CFCD28C30A3
:0E0CE2008DFDC28DC28CEF1F70E91E80E622D0
:060CF000D2B77F057E0073
:100CF600E4FDFCC3ED9FEE6480F8EC648098500739
:070D06000DBD00010C80ECA3
:010D0D0022C3
:010DB200221E
:03000000020B5898
:0C0B5800787FE4F6D8FD758145020B9F04
:100D2900BB010689828A83E0225002E722BBFE02C8
:090D3900E32289828A83E49322FB
:100B6400020C74E493A3F8E493A34003F68001F227
:100B740008DFF48029E493A3F85407240CC8C33392
:100B8400C4540F4420C8834004F456800146F6DF61
:100B9400E4800B0102040810204080900D76E47E6E
:100BA400019360BCA3FF543F30E509541FFEE49356
:100BB400A360010ECF54C025E060A840B8E493A31D
:100BC400FAE493A3F8E493A3C8C582C8CAC583CA48
:100BD400F0A3C8C582C8CAC583CADFE9DEE780BE00
:010D82000070
:00000001FF
