:1009D50002080000110A52656164696E672053655B
:0709E5007269616C2E2E0007
:10090300120A17120A3D120964120A441209381214
:100913000A0B120A4AE4F5801209A075800A12092B
:10092300A07580321209A075803C1209A07580461B
:050933001209A080E0A4
:060A440075A0800209ED1F
:0C0A0B0075A0C01209ED75A00F0209EDE6
:0F09ED00C2B6120A4ED2B7120A23C2B7020A2CA0
:0F09FC00D2B6120A4ED2B7120A23C2B7020A2C81
:060938007B007A00790A41
:10093E008B1F8A208921AB1FAA20A9211209BC6016
:10094E00140521E5217002052014F91209BCF5A049
:06095E001209FC80E122F9
:0300230002088C44
:10088C00C0E0C0F0C083C082C0D075D000C000C032
:10089C0001C002C003C004C005C006C007E509645E
:1008AC000F4508700875A0071209ED801CE5096456
:1008BC002745087014F508F509120964120A441248
:1008CC000938120A0BC298801385991B851BA0123C
:1008DC0009FC0509E50970020508C298D007D00685
:1008EC00D005D004D003D002D001D000D0D0D0821B
:0708FC00D083D0F0D0E03200
:0C0A1700758920758DFD758BFDD28E2237
:070A3D0075878075985022B7
:1009640075A0381209ED75A0061209ED75A00E12D6
:0E09740009ED75A0011209ED75A0020209ED52
:040A4A0075A89022D9
:090A2300120A4E120A4E020A4E9C
:080A2C007F1B7EFFDEFEDFFAF6
:010A3400229F
:070A35007D05120A2CDDFB18
:010A3C002297
:0409A0007FF47E0161
:1009A400E4FDFCC3ED9FEE6480F8EC64809850078E
:0709B4000DBD00010C80ECF9
:0109BB002219
:10098200438901EF4E6016758A65758CFCD28C30F6
:0E0992008DFDC28DC28CEF1F70E91E80E62223
:010A4E002285
:03000000020800F3
:0C080000787FE4F6D8FD758121020847DE
:1009BC00BB010689828A83E0225002E722BBFE0239
:0909CC00E32289828A83E493226C
:10080C00020903E493A3F8E493A34003F68001F2F6
:10081C0008DFF48029E493A3F85407240CC8C333ED
:10082C00C4540F4420C8834004F456800146F6DFBC
:10083C00E4800B01020408102040809009D5E47E6E
:10084C00019360BCA3FF543F30E509541FFEE493B1
:10085C00A360010ECF54C025E060A840B8E493A378
:10086C00FAE493A3F8E493A3C8C582C8CAC583CAA3
:10087C00F0A3C8C582C8CAC583CADFE9DEE780BE5B
:0109EC00000A
:00000001FF
