:10092E0002080000110A52656164696E6720536502
:07093E007269616C2E2E00AE
:100946001209871209AD1208F71209B41208CB1260
:07095600097B1209BA80FEC3
:0609B40075A08002095D40
:0C097B0075A0C012095D75A00F02095D97
:0F095D00C2B61209BED2B7120993C2B702099CE3
:0F096C00D2B61209BED2B7120993C2B702099CC4
:0608CB007B007A00790AAF
:1008D1008B1C8A1D891EAB1CAA1DA91E120915603D
:1008E10014051EE51E7002051D14F9120915F5A067
:0608F10012096C80E122F7
:10088C00E509640F4508700875A00712095D801B07
:10089C00E509642745087013F508F5091208F712E5
:1008AC0009B41208CB12097BC2982285991B851BAF
:0F08BC00A012096C0509E50970020508C298220F
:0C098700758920758DFD758BFDD28E22C8
:0709AD007587807598502248
:1008F70075A03812095D75A00612095D75A00E1264
:0E090700095D75A00112095D75A00202095D6F
:0409BA0075A890226A
:090993001209BE1209BE0209BEE0
:08099C007F1B7EFFDEFEDFFA87
:0109A4002230
:0709A5007D0512099CDDFB3A
:0109AC002228
:0109BE002216
:03000000020800F3
:0C080000787FE4F6D8FD75811E020847E1
:10091500BB010689828A83E0225002E722BBFE02E0
:09092500E32289828A83E4932213
:10080C00020946E493A3F8E493A34003F68001F2B3
:10081C0008DFF48029E493A3F85407240CC8C333ED
:10082C00C4540F4420C8834004F456800146F6DFBC
:10083C00E4800B010204081020408090092EE47E15
:10084C00019360BCA3FF543F30E509541FFEE493B1
:10085C00A360010ECF54C025E060A840B8E493A378
:10086C00FAE493A3F8E493A3C8C582C8CAC583CAA3
:10087C00F0A3C8C582C8CAC583CADFE9DEE780BE5B
:0109450000B1
:00000001FF
